{
  "_format": "hh-sol-artifact-1",
  "contractName": "ZunamiForwarder",
  "sourceName": "contracts/crosschain/ZunamiForwarder.sol",
  "abi": [
    {
      "inputs": [
        {
          "internalType": "address[3]",
          "name": "_tokens",
          "type": "address[3]"
        },
        {
          "internalType": "uint256",
          "name": "_tokenPoolId",
          "type": "uint256"
        },
        {
          "internalType": "address",
          "name": "_zunami",
          "type": "address"
        },
        {
          "internalType": "address",
          "name": "_curveExchange",
          "type": "address"
        },
        {
          "internalType": "address",
          "name": "_stargateRouter",
          "type": "address"
        },
        {
          "internalType": "address",
          "name": "_layerZeroEndpoint",
          "type": "address"
        }
      ],
      "stateMutability": "nonpayable",
      "type": "constructor"
    },
    {
      "anonymous": false,
      "inputs": [
        {
          "indexed": true,
          "internalType": "uint256",
          "name": "id",
          "type": "uint256"
        },
        {
          "indexed": false,
          "internalType": "uint256",
          "name": "tokenId",
          "type": "uint256"
        },
        {
          "indexed": false,
          "internalType": "uint256",
          "name": "tokenAmount",
          "type": "uint256"
        }
      ],
      "name": "CreatedPendingDeposit",
      "type": "event"
    },
    {
      "anonymous": false,
      "inputs": [
        {
          "indexed": true,
          "internalType": "uint256",
          "name": "id",
          "type": "uint256"
        },
        {
          "indexed": false,
          "internalType": "uint256",
          "name": "lpShares",
          "type": "uint256"
        }
      ],
      "name": "CreatedPendingWithdrawal",
      "type": "event"
    },
    {
      "anonymous": false,
      "inputs": [
        {
          "indexed": true,
          "internalType": "uint256",
          "name": "id",
          "type": "uint256"
        },
        {
          "indexed": false,
          "internalType": "uint256",
          "name": "lpShares",
          "type": "uint256"
        }
      ],
      "name": "Deposited",
      "type": "event"
    },
    {
      "anonymous": false,
      "inputs": [
        {
          "indexed": true,
          "internalType": "bytes32",
          "name": "role",
          "type": "bytes32"
        },
        {
          "indexed": true,
          "internalType": "bytes32",
          "name": "previousAdminRole",
          "type": "bytes32"
        },
        {
          "indexed": true,
          "internalType": "bytes32",
          "name": "newAdminRole",
          "type": "bytes32"
        }
      ],
      "name": "RoleAdminChanged",
      "type": "event"
    },
    {
      "anonymous": false,
      "inputs": [
        {
          "indexed": true,
          "internalType": "bytes32",
          "name": "role",
          "type": "bytes32"
        },
        {
          "indexed": true,
          "internalType": "address",
          "name": "account",
          "type": "address"
        },
        {
          "indexed": true,
          "internalType": "address",
          "name": "sender",
          "type": "address"
        }
      ],
      "name": "RoleGranted",
      "type": "event"
    },
    {
      "anonymous": false,
      "inputs": [
        {
          "indexed": true,
          "internalType": "bytes32",
          "name": "role",
          "type": "bytes32"
        },
        {
          "indexed": true,
          "internalType": "address",
          "name": "account",
          "type": "address"
        },
        {
          "indexed": true,
          "internalType": "address",
          "name": "sender",
          "type": "address"
        }
      ],
      "name": "RoleRevoked",
      "type": "event"
    },
    {
      "anonymous": false,
      "inputs": [
        {
          "indexed": false,
          "internalType": "uint256",
          "name": "chainId",
          "type": "uint256"
        },
        {
          "indexed": false,
          "internalType": "address",
          "name": "gateway",
          "type": "address"
        },
        {
          "indexed": false,
          "internalType": "uint256",
          "name": "tokenPoolId",
          "type": "uint256"
        }
      ],
      "name": "SetGatewayParams",
      "type": "event"
    },
    {
      "anonymous": false,
      "inputs": [
        {
          "indexed": true,
          "internalType": "uint256",
          "name": "id",
          "type": "uint256"
        },
        {
          "indexed": false,
          "internalType": "uint256",
          "name": "tokenId",
          "type": "uint256"
        },
        {
          "indexed": false,
          "internalType": "uint256",
          "name": "tokenAmount",
          "type": "uint256"
        }
      ],
      "name": "Withdrawn",
      "type": "event"
    },
    {
      "inputs": [],
      "name": "DAI_TOKEN_ID",
      "outputs": [
        {
          "internalType": "int128",
          "name": "",
          "type": "int128"
        }
      ],
      "stateMutability": "view",
      "type": "function"
    },
    {
      "inputs": [],
      "name": "DEFAULT_ADMIN_ROLE",
      "outputs": [
        {
          "internalType": "bytes32",
          "name": "",
          "type": "bytes32"
        }
      ],
      "stateMutability": "view",
      "type": "function"
    },
    {
      "inputs": [],
      "name": "OPERATOR_ROLE",
      "outputs": [
        {
          "internalType": "bytes32",
          "name": "",
          "type": "bytes32"
        }
      ],
      "stateMutability": "view",
      "type": "function"
    },
    {
      "inputs": [],
      "name": "POOL_ASSETS",
      "outputs": [
        {
          "internalType": "uint8",
          "name": "",
          "type": "uint8"
        }
      ],
      "stateMutability": "view",
      "type": "function"
    },
    {
      "inputs": [],
      "name": "USDC_TOKEN_ID",
      "outputs": [
        {
          "internalType": "int128",
          "name": "",
          "type": "int128"
        }
      ],
      "stateMutability": "view",
      "type": "function"
    },
    {
      "inputs": [],
      "name": "USDT_TOKEN_ID",
      "outputs": [
        {
          "internalType": "uint128",
          "name": "",
          "type": "uint128"
        }
      ],
      "stateMutability": "view",
      "type": "function"
    },
    {
      "inputs": [
        {
          "internalType": "uint256",
          "name": "depositId",
          "type": "uint256"
        },
        {
          "internalType": "uint256",
          "name": "zlpTotalAmount",
          "type": "uint256"
        }
      ],
      "name": "completeDeposits",
      "outputs": [],
      "stateMutability": "nonpayable",
      "type": "function"
    },
    {
      "inputs": [
        {
          "internalType": "uint256",
          "name": "withdrawalId",
          "type": "uint256"
        }
      ],
      "name": "completeWithdrawals",
      "outputs": [],
      "stateMutability": "payable",
      "type": "function"
    },
    {
      "inputs": [],
      "name": "curveExchange",
      "outputs": [
        {
          "internalType": "contract ICurvePool",
          "name": "",
          "type": "address"
        }
      ],
      "stateMutability": "view",
      "type": "function"
    },
    {
      "inputs": [],
      "name": "gatewayAddress",
      "outputs": [
        {
          "internalType": "address",
          "name": "",
          "type": "address"
        }
      ],
      "stateMutability": "view",
      "type": "function"
    },
    {
      "inputs": [],
      "name": "gatewayChainId",
      "outputs": [
        {
          "internalType": "uint16",
          "name": "",
          "type": "uint16"
        }
      ],
      "stateMutability": "view",
      "type": "function"
    },
    {
      "inputs": [],
      "name": "gatewayTokenPoolId",
      "outputs": [
        {
          "internalType": "uint256",
          "name": "",
          "type": "uint256"
        }
      ],
      "stateMutability": "view",
      "type": "function"
    },
    {
      "inputs": [
        {
          "internalType": "bytes32",
          "name": "role",
          "type": "bytes32"
        }
      ],
      "name": "getRoleAdmin",
      "outputs": [
        {
          "internalType": "bytes32",
          "name": "",
          "type": "bytes32"
        }
      ],
      "stateMutability": "view",
      "type": "function"
    },
    {
      "inputs": [
        {
          "internalType": "bytes32",
          "name": "role",
          "type": "bytes32"
        },
        {
          "internalType": "address",
          "name": "account",
          "type": "address"
        }
      ],
      "name": "grantRole",
      "outputs": [],
      "stateMutability": "nonpayable",
      "type": "function"
    },
    {
      "inputs": [
        {
          "internalType": "bytes32",
          "name": "role",
          "type": "bytes32"
        },
        {
          "internalType": "address",
          "name": "account",
          "type": "address"
        }
      ],
      "name": "hasRole",
      "outputs": [
        {
          "internalType": "bool",
          "name": "",
          "type": "bool"
        }
      ],
      "stateMutability": "view",
      "type": "function"
    },
    {
      "inputs": [],
      "name": "layerZeroEndpoint",
      "outputs": [
        {
          "internalType": "contract ILayerZeroEndpoint",
          "name": "",
          "type": "address"
        }
      ],
      "stateMutability": "view",
      "type": "function"
    },
    {
      "inputs": [
        {
          "internalType": "uint16",
          "name": "_srcChainId",
          "type": "uint16"
        },
        {
          "internalType": "bytes",
          "name": "_srcAddress",
          "type": "bytes"
        },
        {
          "internalType": "uint64",
          "name": "_nonce",
          "type": "uint64"
        },
        {
          "internalType": "bytes",
          "name": "_payload",
          "type": "bytes"
        }
      ],
      "name": "lzReceive",
      "outputs": [],
      "stateMutability": "nonpayable",
      "type": "function"
    },
    {
      "inputs": [
        {
          "internalType": "uint256",
          "name": "depositId",
          "type": "uint256"
        }
      ],
      "name": "pendingDeposits",
      "outputs": [
        {
          "internalType": "uint256",
          "name": "",
          "type": "uint256"
        }
      ],
      "stateMutability": "view",
      "type": "function"
    },
    {
      "inputs": [
        {
          "internalType": "uint256",
          "name": "withdrawalId",
          "type": "uint256"
        }
      ],
      "name": "pendingWithdrawals",
      "outputs": [
        {
          "internalType": "bool",
          "name": "",
          "type": "bool"
        }
      ],
      "stateMutability": "view",
      "type": "function"
    },
    {
      "inputs": [
        {
          "internalType": "bytes32",
          "name": "role",
          "type": "bytes32"
        },
        {
          "internalType": "address",
          "name": "account",
          "type": "address"
        }
      ],
      "name": "renounceRole",
      "outputs": [],
      "stateMutability": "nonpayable",
      "type": "function"
    },
    {
      "inputs": [
        {
          "internalType": "bytes32",
          "name": "role",
          "type": "bytes32"
        },
        {
          "internalType": "address",
          "name": "account",
          "type": "address"
        }
      ],
      "name": "revokeRole",
      "outputs": [],
      "stateMutability": "nonpayable",
      "type": "function"
    },
    {
      "inputs": [
        {
          "internalType": "uint16",
          "name": "_chainId",
          "type": "uint16"
        },
        {
          "internalType": "address",
          "name": "_address",
          "type": "address"
        },
        {
          "internalType": "uint256",
          "name": "_tokenPoolId",
          "type": "uint256"
        }
      ],
      "name": "setGatewayParams",
      "outputs": [],
      "stateMutability": "nonpayable",
      "type": "function"
    },
    {
      "inputs": [
        {
          "internalType": "uint16",
          "name": "_srcChainId",
          "type": "uint16"
        },
        {
          "internalType": "bytes",
          "name": "_srcAddress",
          "type": "bytes"
        },
        {
          "internalType": "uint256",
          "name": "_nonce",
          "type": "uint256"
        },
        {
          "internalType": "address",
          "name": "_token",
          "type": "address"
        },
        {
          "internalType": "uint256",
          "name": "amountLD",
          "type": "uint256"
        },
        {
          "internalType": "bytes",
          "name": "payload",
          "type": "bytes"
        }
      ],
      "name": "sgReceive",
      "outputs": [],
      "stateMutability": "nonpayable",
      "type": "function"
    },
    {
      "inputs": [],
      "name": "stargateRouter",
      "outputs": [
        {
          "internalType": "contract IStargateRouter",
          "name": "",
          "type": "address"
        }
      ],
      "stateMutability": "view",
      "type": "function"
    },
    {
      "inputs": [
        {
          "internalType": "bytes4",
          "name": "interfaceId",
          "type": "bytes4"
        }
      ],
      "name": "supportsInterface",
      "outputs": [
        {
          "internalType": "bool",
          "name": "",
          "type": "bool"
        }
      ],
      "stateMutability": "view",
      "type": "function"
    },
    {
      "inputs": [],
      "name": "tokenPoolId",
      "outputs": [
        {
          "internalType": "uint256",
          "name": "",
          "type": "uint256"
        }
      ],
      "stateMutability": "view",
      "type": "function"
    },
    {
      "inputs": [
        {
          "internalType": "uint256",
          "name": "",
          "type": "uint256"
        }
      ],
      "name": "tokens",
      "outputs": [
        {
          "internalType": "address",
          "name": "",
          "type": "address"
        }
      ],
      "stateMutability": "view",
      "type": "function"
    },
    {
      "inputs": [
        {
          "internalType": "contract IERC20Metadata",
          "name": "_token",
          "type": "address"
        }
      ],
      "name": "withdrawStuckToken",
      "outputs": [],
      "stateMutability": "nonpayable",
      "type": "function"
    },
    {
      "inputs": [],
      "name": "zunami",
      "outputs": [
        {
          "internalType": "contract IZunami",
          "name": "",
          "type": "address"
        }
      ],
      "stateMutability": "view",
      "type": "function"
    }
  ],
  "bytecode": "0x60806040523480156200001157600080fd5b50604051620022593803806200225983398101604081905262000034916200022c565b62000041600033620000d5565b6200006d7f97667070c54ef182b0f5858b034beac1b6f3089aa2d3188bb1e8929f4fa9b92933620000d5565b6200007c600587600362000185565b50600894909455600180546001600160a01b03199081166001600160a01b03958616179091556003805482169285169290921790915560048054821694841694909417909355600280549093169116179055506200030b565b620000e18282620000e5565b5050565b6000828152602081815260408083206001600160a01b038516845290915290205460ff16620000e1576000828152602081815260408083206001600160a01b03851684529091529020805460ff19166001179055620001413390565b6001600160a01b0316816001600160a01b0316837f2f8788117e7eff1d82e926ec794901d17c78024a50270940304540a733656f0d60405160405180910390a45050565b8260038101928215620001d0579160200282015b82811115620001d057825182546001600160a01b0319166001600160a01b0390911617825560209092019160019091019062000199565b50620001de929150620001e2565b5090565b5b80821115620001de5760008155600101620001e3565b634e487b7160e01b600052604160045260246000fd5b80516001600160a01b03811681146200022757600080fd5b919050565b60008060008060008061010087890312156200024757600080fd5b87601f8801126200025757600080fd5b604051606081016001600160401b03811182821017156200027c576200027c620001f9565b60405280606089018a8111156200029257600080fd5b895b81811015620002b757620002a8816200020f565b83526020928301920162000294565b5051919750909550620002cf9050608088016200020f565b9350620002df60a088016200020f565b9250620002ef60c088016200020f565b9150620002ff60e088016200020f565b90509295509295509295565b611f3e806200031b6000396000f3fe6080604052600436106101c05760003560e01c806391d14854116100f7578063b1c2cd1e11610095578063e9b6d59911610064578063e9b6d5991461055c578063eec37a9b14610572578063f5b541a614610592578063fff0514e146105c657600080fd5b8063b1c2cd1e146104bf578063d547741f146104df578063d771c674146104ff578063e61504001461052c57600080fd5b8063a217fddf116100d1578063a217fddf1461043d578063a793279414610452578063a9e56f3c1461047f578063ab8236f31461049f57600080fd5b806391d14854146103e8578063952e76bc146104085780639fd8f2161461041d57600080fd5b806336568abe116101645780637b6afa9b1161013e5780637b6afa9b1461036757806381ff3e8b1461037a5780638b851b951461039a5780638d485a70146103c057600080fd5b806336568abe146103005780634f64b2be1461032057806375451b4f1461034057600080fd5b8063068acf6c116101a0578063068acf6c1461024a57806307968db11461026a578063248a9ca3146102a25780632f2ff15d146102e057600080fd5b80621d3567146101c5578062c7d4db146101e757806301ffc9a71461021a575b600080fd5b3480156101d157600080fd5b506101e56101e03660046118ae565b6105dc565b005b3480156101f357600080fd5b506009546102029061ffff1681565b60405161ffff90911681526020015b60405180910390f35b34801561022657600080fd5b5061023a610235366004611948565b610756565b6040519015158152602001610211565b34801561025657600080fd5b506101e561026536600461198a565b61078d565b34801561027657600080fd5b5060045461028a906001600160a01b031681565b6040516001600160a01b039091168152602001610211565b3480156102ae57600080fd5b506102d26102bd3660046119a7565b60009081526020819052604090206001015490565b604051908152602001610211565b3480156102ec57600080fd5b506101e56102fb3660046119c0565b610825565b34801561030c57600080fd5b506101e561031b3660046119c0565b61084b565b34801561032c57600080fd5b5061028a61033b3660046119a7565b6108c9565b34801561034c57600080fd5b50610355600381565b60405160ff9091168152602001610211565b6101e56103753660046119a7565b6108e9565b34801561038657600080fd5b5060015461028a906001600160a01b031681565b3480156103a657600080fd5b5060095461028a906201000090046001600160a01b031681565b3480156103cc57600080fd5b506103d5600181565b604051600f9190910b8152602001610211565b3480156103f457600080fd5b5061023a6104033660046119c0565b610ae7565b34801561041457600080fd5b506103d5600081565b34801561042957600080fd5b5060025461028a906001600160a01b031681565b34801561044957600080fd5b506102d2600081565b34801561045e57600080fd5b506102d261046d3660046119a7565b6000908152600b602052604090205490565b34801561048b57600080fd5b5060035461028a906001600160a01b031681565b3480156104ab57600080fd5b506101e56104ba366004611a93565b610b10565b3480156104cb57600080fd5b506101e56104da366004611b2e565b610d4d565b3480156104eb57600080fd5b506101e56104fa3660046119c0565b610dd5565b34801561050b57600080fd5b50610514600281565b6040516001600160801b039091168152602001610211565b34801561053857600080fd5b5061023a6105473660046119a7565b6000908152600c602052604090205460ff1690565b34801561056857600080fd5b506102d260085481565b34801561057e57600080fd5b506101e561058d366004611b6d565b610dfb565b34801561059e57600080fd5b506102d27f97667070c54ef182b0f5858b034beac1b6f3089aa2d3188bb1e8929f4fa9b92981565b3480156105d257600080fd5b506102d2600a5481565b6004546001600160a01b031633146106615760405162461bcd60e51b815260206004820152603b60248201527f5a756e616d69476174657761793a206f6e6c79207a65726f206c61796572206560448201527f6e64706f696e742063616e2063616c6c206c7a5265636569766521000000000060648201526084015b60405180910390fd5b60008061067083850185611b6d565b9150915061067c611830565b600154610693906001600160a01b0316808461106a565b60015460405162955d4360e71b81526001600160a01b0390911690634aaea180906106c49085908590600401611bb8565b600060405180830381600087803b1580156106de57600080fd5b505af11580156106f2573d6000803e3d6000fd5b5050506000848152600c602052604090819020805460ff19166001179055518491507fb044668583d811edbcfe183ec48395b7910a50f3d531f3f1301233706acd64f4906107439085815260200190565b60405180910390a2505050505050505050565b60006001600160e01b03198216637965db0b60e01b148061078757506301ffc9a760e01b6001600160e01b03198316145b92915050565b600061079981336111b2565b6040516370a0823160e01b81523060048201526000906001600160a01b038416906370a0823190602401602060405180830381865afa1580156107e0573d6000803e3d6000fd5b505050506040513d601f19601f820116820180604052508101906108049190611bcc565b90508015610820576108206001600160a01b0384163383611216565b505050565b60008281526020819052604090206001015461084181336111b2565b6108208383611246565b6001600160a01b03811633146108bb5760405162461bcd60e51b815260206004820152602f60248201527f416363657373436f6e74726f6c3a2063616e206f6e6c792072656e6f756e636560448201526e103937b632b9903337b91039b2b63360891b6064820152608401610658565b6108c582826112ca565b5050565b600581600381106108d957600080fd5b01546001600160a01b0316905081565b7f97667070c54ef182b0f5858b034beac1b6f3089aa2d3188bb1e8929f4fa9b92961091481336111b2565b61091e600061132f565b610928600161132f565b6007546040516370a0823160e01b81523060048201526000916001600160a01b0316906370a0823190602401602060405180830381865afa158015610971573d6000803e3d6000fd5b505050506040513d601f19601f820116820180604052508101906109959190611bcc565b600354600954600854600a5460408051606080820183526205573082526000602080840191909152835180850185526002815261060f60f31b8183015283850152925162010000870490911b6bffffffffffffffffffffffff1916928101929092529596506001600160a01b0390941694639fbf10fc94349461ffff169392913391899182916034016040516020818303038152906040528d604051602001610a4091815260200190565b6040516020818303038152906040526040518b63ffffffff1660e01b8152600401610a7399989796959493929190611c53565b6000604051808303818588803b158015610a8c57600080fd5b505af1158015610aa0573d6000803e3d6000fd5b50506040805160028152602081018690528794507fabd2ab552bc04cdbfa4a54107fa44ac8c9cb06f6d21da11933ac05a653be19e9935001905060405180910390a2505050565b6000918252602082815260408084206001600160a01b0393909316845291905290205460ff1690565b6003546001600160a01b03163314610b905760405162461bcd60e51b815260206004820152603960248201527f5a756e616d69466f727761726465723a206f6e6c79207374617267617465207260448201527f6f757465722063616e2063616c6c2073675265636569766521000000000000006064820152608401610658565b60095461ffff878116911614610bf75760405162461bcd60e51b815260206004820152602660248201527f5a756e616d69466f727761726465723a2077726f6e6720736f75726365206368604482015265185a5b881a5960d21b6064820152608401610658565b600081806020019051810190610c0d9190611bcc565b90506005600201546001600160a01b03858116911614610c7b5760405162461bcd60e51b8152602060048201526024808201527f5a756e616d69466f727761726465723a2077726f6e6720746f6b656e206164646044820152637265737360e01b6064820152608401610658565b610c83611830565b60408101849052600154610ca4906001600160a01b0387811691168661106a565b60015460405163e287950560e01b81526001600160a01b039091169063e287950590610cd4908490600401611cf1565b600060405180830381600087803b158015610cee57600080fd5b505af1158015610d02573d6000803e3d6000fd5b50506040805160028152602081018890528593507f3f4eb095aadf98bfed0e13af381b2a72a3e0883b728d662a8b56bc410f2c17019250015b60405180910390a25050505050505050565b6000610d5981336111b2565b6009805461ffff86166001600160b01b03199091168117620100006001600160a01b03871690810291909117909255600a8490556040805191825260208201929092529081018390527fdb85d13614082578c190eebfa3580e3a42fed95fd283016a00919e4691e953e39060600160405180910390a150505050565b600082815260208190526040902060010154610df181336111b2565b61082083836112ca565b7f97667070c54ef182b0f5858b034beac1b6f3089aa2d3188bb1e8929f4fa9b929610e2681336111b2565b6000838152600b6020908152604080832054815192830187905282820152606080830186905281518084039091018152608083018252600160f01b60a08401526205573060a28085018290528351808603909101815260c285019384905260045460095463040a7bb160e41b90955292956001959294919390926001600160a01b03909116916340a7bb1091610ecb9161ffff169030908a908790899060c601611cff565b6040805180830381865afa158015610ee7573d6000803e3d6000fd5b505050506040513d601f19601f82011682018060405250810190610f0b9190611d53565b50905080471015610f935760405162461bcd60e51b815260206004820152604660248201527f616464726573732874686973292e62616c616e6365203c206d6573736167654660448201527f65652e2066756e64207468697320636f6e74726163742077697468206d6f72656064820152651032ba3432b960d11b608482015260a401610658565b6004546009546040805162010000830460601b6bffffffffffffffffffffffff1916602082015281516014818303018152603482019283905262c5803160e81b9092526001600160a01b039093169263c58031009285926110069261ffff909216918b9030906000908b90603801611d77565b6000604051808303818588803b15801561101f57600080fd5b505af1158015611033573d6000803e3d6000fd5b5050505050877f06da3309189fa49284f335d2c2bcb4cb0b8ad2a59ad92a9bdebeeb8f1ceba51188604051610d3b91815260200190565b8015806110e45750604051636eb1769f60e11b81523060048201526001600160a01b03838116602483015284169063dd62ed3e90604401602060405180830381865afa1580156110be573d6000803e3d6000fd5b505050506040513d601f19601f820116820180604052508101906110e29190611bcc565b155b61114f5760405162461bcd60e51b815260206004820152603660248201527f5361666545524332303a20617070726f76652066726f6d206e6f6e2d7a65726f60448201527520746f206e6f6e2d7a65726f20616c6c6f77616e636560501b6064820152608401610658565b6040516001600160a01b03831660248201526044810182905261082090849063095ea7b360e01b906064015b60408051601f198184030181529190526020810180516001600160e01b03166001600160e01b03199093169290921790915261143a565b6111bc8282610ae7565b6108c5576111d4816001600160a01b0316601461150c565b6111df83602061150c565b6040516020016111f0929190611dde565b60408051601f198184030181529082905262461bcd60e51b825261065891600401611e53565b6040516001600160a01b03831660248201526044810182905261082090849063a9059cbb60e01b9060640161117b565b6112508282610ae7565b6108c5576000828152602081815260408083206001600160a01b03851684529091529020805460ff191660011790556112863390565b6001600160a01b0316816001600160a01b0316837f2f8788117e7eff1d82e926ec794901d17c78024a50270940304540a733656f0d60405160405180910390a45050565b6112d48282610ae7565b156108c5576000828152602081815260408083206001600160a01b0385168085529252808320805460ff1916905551339285917ff6391f5c32d9c69d2a47ea670b442974b53935d1edc7fd64eb21e047a839171b9190a45050565b60006005826001600160801b03166003811061134d5761134d611be5565b01546040516370a0823160e01b81523060048201526001600160a01b03909116906370a0823190602401602060405180830381865afa158015611394573d6000803e3d6000fd5b505050506040513d601f19601f820116820180604052508101906113b89190611bcc565b905080156108c55760028054604051630f7c084960e21b8152600f85900b6004820152602481019290925260448201839052600060648301526001600160a01b031690633df0212490608401600060405180830381600087803b15801561141e57600080fd5b505af1158015611432573d6000803e3d6000fd5b505050505050565b600061148f826040518060400160405280602081526020017f5361666545524332303a206c6f772d6c6576656c2063616c6c206661696c6564815250856001600160a01b03166116af9092919063ffffffff16565b80519091501561082057808060200190518101906114ad9190611e66565b6108205760405162461bcd60e51b815260206004820152602a60248201527f5361666545524332303a204552433230206f7065726174696f6e20646964206e6044820152691bdd081cdd58d8d9595960b21b6064820152608401610658565b6060600061151b836002611e9e565b611526906002611ebd565b67ffffffffffffffff81111561153e5761153e6119f0565b6040519080825280601f01601f191660200182016040528015611568576020820181803683370190505b509050600360fc1b8160008151811061158357611583611be5565b60200101906001600160f81b031916908160001a905350600f60fb1b816001815181106115b2576115b2611be5565b60200101906001600160f81b031916908160001a90535060006115d6846002611e9e565b6115e1906001611ebd565b90505b6001811115611659576f181899199a1a9b1b9c1cb0b131b232b360811b85600f166010811061161557611615611be5565b1a60f81b82828151811061162b5761162b611be5565b60200101906001600160f81b031916908160001a90535060049490941c9361165281611ed5565b90506115e4565b5083156116a85760405162461bcd60e51b815260206004820181905260248201527f537472696e67733a20686578206c656e67746820696e73756666696369656e746044820152606401610658565b9392505050565b60606116be84846000856116c6565b949350505050565b6060824710156117275760405162461bcd60e51b815260206004820152602660248201527f416464726573733a20696e73756666696369656e742062616c616e636520666f6044820152651c8818d85b1b60d21b6064820152608401610658565b6001600160a01b0385163b61177e5760405162461bcd60e51b815260206004820152601d60248201527f416464726573733a2063616c6c20746f206e6f6e2d636f6e74726163740000006044820152606401610658565b600080866001600160a01b0316858760405161179a9190611eec565b60006040518083038185875af1925050503d80600081146117d7576040519150601f19603f3d011682016040523d82523d6000602084013e6117dc565b606091505b50915091506117ec8282866117f7565b979650505050505050565b606083156118065750816116a8565b8251156118165782518084602001fd5b8160405162461bcd60e51b81526004016106589190611e53565b60405180606001604052806003906020820280368337509192915050565b803561ffff8116811461186057600080fd5b919050565b60008083601f84011261187757600080fd5b50813567ffffffffffffffff81111561188f57600080fd5b6020830191508360208285010111156118a757600080fd5b9250929050565b600080600080600080608087890312156118c757600080fd5b6118d08761184e565b9550602087013567ffffffffffffffff808211156118ed57600080fd5b6118f98a838b01611865565b909750955060408901359150808216821461191357600080fd5b9093506060880135908082111561192957600080fd5b5061193689828a01611865565b979a9699509497509295939492505050565b60006020828403121561195a57600080fd5b81356001600160e01b0319811681146116a857600080fd5b6001600160a01b038116811461198757600080fd5b50565b60006020828403121561199c57600080fd5b81356116a881611972565b6000602082840312156119b957600080fd5b5035919050565b600080604083850312156119d357600080fd5b8235915060208301356119e581611972565b809150509250929050565b634e487b7160e01b600052604160045260246000fd5b600082601f830112611a1757600080fd5b813567ffffffffffffffff80821115611a3257611a326119f0565b604051601f8301601f19908116603f01168101908282118183101715611a5a57611a5a6119f0565b81604052838152866020858801011115611a7357600080fd5b836020870160208301376000602085830101528094505050505092915050565b60008060008060008060c08789031215611aac57600080fd5b611ab58761184e565b9550602087013567ffffffffffffffff80821115611ad257600080fd5b611ade8a838b01611a06565b96506040890135955060608901359150611af782611972565b9093506080880135925060a08801359080821115611b1457600080fd5b50611b2189828a01611a06565b9150509295509295509295565b600080600060608486031215611b4357600080fd5b611b4c8461184e565b92506020840135611b5c81611972565b929592945050506040919091013590565b60008060408385031215611b8057600080fd5b50508035926020909101359150565b8060005b6003811015611bb2578151845260209384019390910190600101611b93565b50505050565b828152608081016116a86020830184611b8f565b600060208284031215611bde57600080fd5b5051919050565b634e487b7160e01b600052603260045260246000fd5b60005b83811015611c16578181015183820152602001611bfe565b83811115611bb25750506000910152565b60008151808452611c3f816020860160208601611bfb565b601f01601f19169290920160200192915050565b600061012061ffff8c1683528a602084015289604084015260018060a01b03891660608401528760808401528660a08401528060c084015285518184015250602085015161014083015260408501516060610160840152611cb8610180840182611c27565b905082810360e0840152611ccc8186611c27565b9050828103610100840152611ce18185611c27565b9c9b505050505050505050505050565b606081016107878284611b8f565b61ffff861681526001600160a01b038516602082015260a060408201819052600090611d2d90830186611c27565b84151560608401528281036080840152611d478185611c27565b98975050505050505050565b60008060408385031215611d6657600080fd5b505080516020909101519092909150565b61ffff8716815260c060208201526000611d9460c0830188611c27565b8281036040840152611da68188611c27565b6001600160a01b0387811660608601528616608085015283810360a08501529050611dd18185611c27565b9998505050505050505050565b7f416363657373436f6e74726f6c3a206163636f756e7420000000000000000000815260008351611e16816017850160208801611bfb565b7001034b99036b4b9b9b4b733903937b6329607d1b6017918401918201528351611e47816028840160208801611bfb565b01602801949350505050565b6020815260006116a86020830184611c27565b600060208284031215611e7857600080fd5b815180151581146116a857600080fd5b634e487b7160e01b600052601160045260246000fd5b6000816000190483118215151615611eb857611eb8611e88565b500290565b60008219821115611ed057611ed0611e88565b500190565b600081611ee457611ee4611e88565b506000190190565b60008251611efe818460208701611bfb565b919091019291505056fea26469706673582212203cf461e65d827b33d8b21120aa13800f02ec0e5721b1eca22602a97a3d72c0fc64736f6c634300080c0033",
  "linkReferences": {},
  "deployedLinkReferences": {}
}